{
  "contractName": "Rental",
  "abi": [
    {
      "inputs": [
        {
          "internalType": "string",
          "name": "_date",
          "type": "string"
        },
        {
          "internalType": "string",
          "name": "_time",
          "type": "string"
        }
      ],
      "name": "storeBooking",
      "outputs": [
        {
          "internalType": "string",
          "name": "",
          "type": "string"
        }
      ],
      "stateMutability": "nonpayable",
      "type": "function"
    },
    {
      "inputs": [],
      "name": "getBooking",
      "outputs": [
        {
          "internalType": "string",
          "name": "",
          "type": "string"
        }
      ],
      "stateMutability": "view",
      "type": "function",
      "constant": true
    }
  ],
  "bytecode": "0x6080604052336000806101000a81548173ffffffffffffffffffffffffffffffffffffffff021916908373ffffffffffffffffffffffffffffffffffffffff1602179055506040518060400160405280601281526020017f426f6f6b696e67207761732073746f72656400000000000000000000000000008152506002908051906020019061008f9291906100a2565b5034801561009c57600080fd5b506101a6565b8280546100ae90610174565b90600052602060002090601f0160209004810192826100d05760008555610117565b82601f106100e957805160ff1916838001178555610117565b82800160010185558215610117579182015b828111156101165782518255916020019190600101906100fb565b5b5090506101249190610128565b5090565b5b80821115610141576000816000905550600101610129565b5090565b7f4e487b7100000000000000000000000000000000000000000000000000000000600052602260045260246000fd5b6000600282049050600182168061018c57607f821691505b602082108114156101a05761019f610145565b5b50919050565b610646806101b56000396000f3fe608060405234801561001057600080fd5b50600436106100365760003560e01c806334dc725c1461003b578063aef1ff8814610059575b600080fd5b610043610089565b6040516100509190610309565b60405180910390f35b610073600480360381019061006e9190610474565b610134565b6040516100809190610309565b60405180910390f35b6060600160003373ffffffffffffffffffffffffffffffffffffffff1673ffffffffffffffffffffffffffffffffffffffff168152602001908152602001600020600001600160003373ffffffffffffffffffffffffffffffffffffffff1673ffffffffffffffffffffffffffffffffffffffff1681526020019081526020016000206001016040516020016101209291906105ec565b604051602081830303815290604052905090565b6060604051806040016040528084815260200183815250600160003373ffffffffffffffffffffffffffffffffffffffff1673ffffffffffffffffffffffffffffffffffffffff16815260200190815260200160002060008201518160000190805190602001906101a69291906101cd565b5060208201518160010190805190602001906101c39291906101cd565b5090505092915050565b8280546101d99061051b565b90600052602060002090601f0160209004810192826101fb5760008555610242565b82601f1061021457805160ff1916838001178555610242565b82800160010185558215610242579182015b82811115610241578251825591602001919060010190610226565b5b50905061024f9190610253565b5090565b5b8082111561026c576000816000905550600101610254565b5090565b600081519050919050565b600082825260208201905092915050565b60005b838110156102aa57808201518184015260208101905061028f565b838111156102b9576000848401525b50505050565b6000601f19601f8301169050919050565b60006102db82610270565b6102e5818561027b565b93506102f581856020860161028c565b6102fe816102bf565b840191505092915050565b6000602082019050818103600083015261032381846102d0565b905092915050565b6000604051905090565b600080fd5b600080fd5b600080fd5b600080fd5b7f4e487b7100000000000000000000000000000000000000000000000000000000600052604160045260246000fd5b610381826102bf565b810181811067ffffffffffffffff821117156103a05761039f610349565b5b80604052505050565b60006103b361032b565b90506103bf8282610378565b919050565b600067ffffffffffffffff8211156103df576103de610349565b5b6103e8826102bf565b9050602081019050919050565b82818337600083830152505050565b6000610417610412846103c4565b6103a9565b90508281526020810184848401111561043357610432610344565b5b61043e8482856103f5565b509392505050565b600082601f83011261045b5761045a61033f565b5b813561046b848260208601610404565b91505092915050565b6000806040838503121561048b5761048a610335565b5b600083013567ffffffffffffffff8111156104a9576104a861033a565b5b6104b585828601610446565b925050602083013567ffffffffffffffff8111156104d6576104d561033a565b5b6104e285828601610446565b9150509250929050565b7f4e487b7100000000000000000000000000000000000000000000000000000000600052602260045260246000fd5b6000600282049050600182168061053357607f821691505b60208210811415610547576105466104ec565b5b50919050565b600081905092915050565b60008190508160005260206000209050919050565b6000815461057a8161051b565b610584818661054d565b9450600182166000811461059f57600181146105b0576105e3565b60ff198316865281860193506105e3565b6105b985610558565b60005b838110156105db578154818901526001820191506020810190506105bc565b838801955050505b50505092915050565b60006105f8828561056d565b9150610604828461056d565b9150819050939250505056fea264697066735822122072be44e8cfbf23863b6d66674c8d19f6f2a62089d46b01631f5f2dcbc0f8713364736f6c634300080a0033",
  "immutableReferences": {},
  "source": "// SPDX-License-Identifier: GPL-3.0\r\n\r\npragma solidity >=0.4.22 <0.9.0;\r\n\r\n/**\r\n * @title Storage\r\n * @dev Store & retrieve value in a variable\r\n */\r\ncontract Rental {\r\n\r\n    //VARIABLES\r\n\r\n    //Contract onwer address\r\n    address owner= msg.sender;\r\n\r\n    //Storage for date and time\r\n    struct Booking{\r\n        string date;\r\n        string time;\r\n    }\r\n\r\n    //Connecting the users address to the booking\r\n    mapping (address => Booking) internal bookingDatabase;\r\n\r\n    string result=\"Booking was stored\";\r\n    /**\r\n     * @dev Paying for the booking\r\n     */\r\n    \r\n    //function paymentTransaction() public payable {\r\n        //Get the users address\r\n        //Make esure of suffient funds\r\n        //Send the funds to the contract owners account\r\n        // Create the booking then store it\r\n    //}\r\n\r\n\r\n\r\n    /**\r\n     * @dev Storing  the booking for a specfic address\r\n     */\r\n    \r\n    \r\n    //function storeBooking(string memory _date, string memory _time) public returns (string memory){\r\n    function storeBooking(string memory _date, string memory _time) public returns (string memory){\r\n        //Creating a new booking in the data base\r\n        bookingDatabase[msg.sender]=  Booking({\r\n            date:_date,\r\n            time:_time\r\n        });\r\n        //return result; \r\n    }\r\n\r\n    function getBooking() public view returns (string memory){\r\n        return string(abi.encodePacked(bookingDatabase[msg.sender].date, bookingDatabase[msg.sender].time));\r\n    }\r\n\r\n    \r\n}   ",
  "sourcePath": "C:\\Users\\BHL Maint. Manager\\OneDrive\\Desktop\\Javascript\\contracts\\Rental.sol",
  "compiler": {
    "name": "solc",
    "version": "0.8.10+commit.fc410830.Emscripten.clang"
  },
  "schemaVersion": "3.4.3",
  "updatedAt": "2022-01-11T02:48:03.382Z",
  "networkType": "ethereum",
  "devdoc": {
    "details": "Store & retrieve value in a variable",
    "kind": "dev",
    "methods": {
      "storeBooking(string,string)": {
        "details": "Storing  the booking for a specfic address"
      }
    },
    "title": "Storage",
    "version": 1
  },
  "userdoc": {
    "kind": "user",
    "methods": {},
    "version": 1
  }
}